{
  "abi": [
    {
      "inputs": [],
      "stateMutability": "nonpayable",
      "type": "constructor"
    },
    {
      "inputs": [],
      "name": "AlreadyProcessed",
      "type": "error"
    },
    {
      "inputs": [],
      "name": "AlreadyVoted",
      "type": "error"
    },
    {
      "inputs": [],
      "name": "BridgeInactive",
      "type": "error"
    },
    {
      "inputs": [],
      "name": "EthTransferFailed",
      "type": "error"
    },
    {
      "inputs": [],
      "name": "InsufficientEther",
      "type": "error"
    },
    {
      "inputs": [],
      "name": "InvalidArgument",
      "type": "error"
    },
    {
      "inputs": [],
      "name": "InvalidConfiguration",
      "type": "error"
    },
    {
      "inputs": [],
      "name": "NotApproved",
      "type": "error"
    },
    {
      "inputs": [],
      "name": "RateLimited",
      "type": "error"
    },
    {
      "inputs": [],
      "name": "TooMuchSupply",
      "type": "error"
    },
    {
      "inputs": [],
      "name": "TooSoon",
      "type": "error"
    },
    {
      "inputs": [],
      "name": "Unauthorized",
      "type": "error"
    },
    {
      "anonymous": false,
      "inputs": [
        {
          "indexed": false,
          "internalType": "address",
          "name": "previousAdmin",
          "type": "address"
        },
        {
          "indexed": false,
          "internalType": "address",
          "name": "newAdmin",
          "type": "address"
        }
      ],
      "name": "AdminChanged",
      "type": "event"
    },
    {
      "anonymous": false,
      "inputs": [
        {
          "indexed": true,
          "internalType": "bytes32",
          "name": "receiptId",
          "type": "bytes32"
        }
      ],
      "name": "Approved",
      "type": "event"
    },
    {
      "anonymous": false,
      "inputs": [
        {
          "indexed": true,
          "internalType": "address",
          "name": "beacon",
          "type": "address"
        }
      ],
      "name": "BeaconUpgraded",
      "type": "event"
    },
    {
      "anonymous": false,
      "inputs": [],
      "name": "EmergencyStop",
      "type": "event"
    },
    {
      "anonymous": false,
      "inputs": [
        {
          "indexed": false,
          "internalType": "uint8",
          "name": "version",
          "type": "uint8"
        }
      ],
      "name": "Initialized",
      "type": "event"
    },
    {
      "anonymous": false,
      "inputs": [
        {
          "indexed": false,
          "internalType": "uint256",
          "name": "amount",
          "type": "uint256"
        },
        {
          "indexed": false,
          "internalType": "bytes32",
          "name": "substrateRecipient",
          "type": "bytes32"
        }
      ],
      "name": "OutgoingReceipt",
      "type": "event"
    },
    {
      "anonymous": false,
      "inputs": [
        {
          "indexed": false,
          "internalType": "bytes32",
          "name": "receiptId",
          "type": "bytes32"
        }
      ],
      "name": "Processed",
      "type": "event"
    },
    {
      "anonymous": false,
      "inputs": [
        {
          "indexed": true,
          "internalType": "bytes32",
          "name": "role",
          "type": "bytes32"
        },
        {
          "indexed": true,
          "internalType": "bytes32",
          "name": "previousAdminRole",
          "type": "bytes32"
        },
        {
          "indexed": true,
          "internalType": "bytes32",
          "name": "newAdminRole",
          "type": "bytes32"
        }
      ],
      "name": "RoleAdminChanged",
      "type": "event"
    },
    {
      "anonymous": false,
      "inputs": [
        {
          "indexed": true,
          "internalType": "bytes32",
          "name": "role",
          "type": "bytes32"
        },
        {
          "indexed": true,
          "internalType": "address",
          "name": "account",
          "type": "address"
        },
        {
          "indexed": true,
          "internalType": "address",
          "name": "sender",
          "type": "address"
        }
      ],
      "name": "RoleGranted",
      "type": "event"
    },
    {
      "anonymous": false,
      "inputs": [
        {
          "indexed": true,
          "internalType": "bytes32",
          "name": "role",
          "type": "bytes32"
        },
        {
          "indexed": true,
          "internalType": "address",
          "name": "account",
          "type": "address"
        },
        {
          "indexed": true,
          "internalType": "address",
          "name": "sender",
          "type": "address"
        }
      ],
      "name": "RoleRevoked",
      "type": "event"
    },
    {
      "anonymous": false,
      "inputs": [
        {
          "indexed": false,
          "internalType": "bool",
          "name": "newBridgeState",
          "type": "bool"
        }
      ],
      "name": "StateChanged",
      "type": "event"
    },
    {
      "anonymous": false,
      "inputs": [
        {
          "indexed": true,
          "internalType": "address",
          "name": "implementation",
          "type": "address"
        }
      ],
      "name": "Upgraded",
      "type": "event"
    },
    {
      "anonymous": false,
      "inputs": [
        {
          "indexed": false,
          "internalType": "bytes32",
          "name": "receiptId",
          "type": "bytes32"
        },
        {
          "indexed": false,
          "internalType": "address",
          "name": "relay",
          "type": "address"
        },
        {
          "indexed": false,
          "internalType": "uint64",
          "name": "substrateBlockNumber",
          "type": "uint64"
        }
      ],
      "name": "Vote",
      "type": "event"
    },
    {
      "inputs": [],
      "name": "ADMIN_ROLE",
      "outputs": [
        {
          "internalType": "bytes32",
          "name": "",
          "type": "bytes32"
        }
      ],
      "stateMutability": "view",
      "type": "function"
    },
    {
      "inputs": [],
      "name": "DEFAULT_ADMIN_ROLE",
      "outputs": [
        {
          "internalType": "bytes32",
          "name": "",
          "type": "bytes32"
        }
      ],
      "stateMutability": "view",
      "type": "function"
    },
    {
      "inputs": [],
      "name": "RELAY_ROLE",
      "outputs": [
        {
          "internalType": "bytes32",
          "name": "",
          "type": "bytes32"
        }
      ],
      "stateMutability": "view",
      "type": "function"
    },
    {
      "inputs": [],
      "name": "SUPER_ADMIN_ROLE",
      "outputs": [
        {
          "internalType": "bytes32",
          "name": "",
          "type": "bytes32"
        }
      ],
      "stateMutability": "view",
      "type": "function"
    },
    {
      "inputs": [],
      "name": "UPGRADER_ROLE",
      "outputs": [
        {
          "internalType": "bytes32",
          "name": "",
          "type": "bytes32"
        }
      ],
      "stateMutability": "view",
      "type": "function"
    },
    {
      "inputs": [],
      "name": "WATCHER_ROLE",
      "outputs": [
        {
          "internalType": "bytes32",
          "name": "",
          "type": "bytes32"
        }
      ],
      "stateMutability": "view",
      "type": "function"
    },
    {
      "inputs": [],
      "name": "bridgeActive",
      "outputs": [
        {
          "internalType": "bool",
          "name": "",
          "type": "bool"
        }
      ],
      "stateMutability": "view",
      "type": "function"
    },
    {
      "inputs": [
        {
          "internalType": "uint256",
          "name": "amount",
          "type": "uint256"
        },
        {
          "internalType": "bytes32",
          "name": "substrateRecipient",
          "type": "bytes32"
        }
      ],
      "name": "burn",
      "outputs": [],
      "stateMutability": "nonpayable",
      "type": "function"
    },
    {
      "inputs": [],
      "name": "claimReward",
      "outputs": [],
      "stateMutability": "nonpayable",
      "type": "function"
    },
    {
      "inputs": [],
      "name": "emergencyStop",
      "outputs": [],
      "stateMutability": "nonpayable",
      "type": "function"
    },
    {
      "inputs": [],
      "name": "fee",
      "outputs": [
        {
          "internalType": "uint256",
          "name": "",
          "type": "uint256"
        }
      ],
      "stateMutability": "view",
      "type": "function"
    },
    {
      "inputs": [
        {
          "internalType": "bytes32",
          "name": "role",
          "type": "bytes32"
        }
      ],
      "name": "getRoleAdmin",
      "outputs": [
        {
          "internalType": "bytes32",
          "name": "",
          "type": "bytes32"
        }
      ],
      "stateMutability": "view",
      "type": "function"
    },
    {
      "inputs": [
        {
          "internalType": "bytes32",
          "name": "role",
          "type": "bytes32"
        },
        {
          "internalType": "address",
          "name": "account",
          "type": "address"
        }
      ],
      "name": "grantRole",
      "outputs": [],
      "stateMutability": "nonpayable",
      "type": "function"
    },
    {
      "inputs": [
        {
          "internalType": "bytes32",
          "name": "role",
          "type": "bytes32"
        },
        {
          "internalType": "address",
          "name": "account",
          "type": "address"
        }
      ],
      "name": "hasRole",
      "outputs": [
        {
          "internalType": "bool",
          "name": "",
          "type": "bool"
        }
      ],
      "stateMutability": "view",
      "type": "function"
    },
    {
      "inputs": [
        {
          "internalType": "bytes32",
          "name": "receiptId",
          "type": "bytes32"
        }
      ],
      "name": "incomingReceipts",
      "outputs": [
        {
          "internalType": "uint64",
          "name": "substrateBlockNumber",
          "type": "uint64"
        },
        {
          "internalType": "address",
          "name": "ethRecipient",
          "type": "address"
        },
        {
          "internalType": "uint256",
          "name": "amount",
          "type": "uint256"
        },
        {
          "internalType": "uint256",
          "name": "approvedOn",
          "type": "uint256"
        },
        {
          "internalType": "uint256",
          "name": "processedOn",
          "type": "uint256"
        }
      ],
      "stateMutability": "view",
      "type": "function"
    },
    {
      "inputs": [
        {
          "internalType": "contract WrappedToken",
          "name": "token_",
          "type": "address"
        },
        {
          "internalType": "uint32",
          "name": "votesRequired_",
          "type": "uint32"
        },
        {
          "internalType": "uint256",
          "name": "mintDelay_",
          "type": "uint256"
        },
        {
          "internalType": "uint256",
          "name": "fee_",
          "type": "uint256"
        },
        {
          "internalType": "uint256",
          "name": "counterLimit",
          "type": "uint256"
        },
        {
          "internalType": "uint256",
          "name": "decayRate",
          "type": "uint256"
        },
        {
          "internalType": "uint256",
          "name": "supplyLimit_",
          "type": "uint256"
        }
      ],
      "name": "initialize",
      "outputs": [],
      "stateMutability": "nonpayable",
      "type": "function"
    },
    {
      "inputs": [
        {
          "internalType": "bytes32",
          "name": "receiptId",
          "type": "bytes32"
        }
      ],
      "name": "mint",
      "outputs": [],
      "stateMutability": "payable",
      "type": "function"
    },
    {
      "inputs": [],
      "name": "mintCounter",
      "outputs": [
        {
          "internalType": "uint256",
          "name": "counter",
          "type": "uint256"
        },
        {
          "internalType": "uint256",
          "name": "lastUpdate",
          "type": "uint256"
        }
      ],
      "stateMutability": "view",
      "type": "function"
    },
    {
      "inputs": [],
      "name": "mintDelay",
      "outputs": [
        {
          "internalType": "uint256",
          "name": "",
          "type": "uint256"
        }
      ],
      "stateMutability": "view",
      "type": "function"
    },
    {
      "inputs": [
        {
          "internalType": "address",
          "name": "voter",
          "type": "address"
        }
      ],
      "name": "pendingRewards",
      "outputs": [
        {
          "internalType": "uint256",
          "name": "pendingReward",
          "type": "uint256"
        }
      ],
      "stateMutability": "view",
      "type": "function"
    },
    {
      "inputs": [],
      "name": "proxiableUUID",
      "outputs": [
        {
          "internalType": "bytes32",
          "name": "",
          "type": "bytes32"
        }
      ],
      "stateMutability": "view",
      "type": "function"
    },
    {
      "inputs": [],
      "name": "rateLimit",
      "outputs": [
        {
          "internalType": "uint256",
          "name": "counterLimit",
          "type": "uint256"
        },
        {
          "internalType": "uint256",
          "name": "decayRate",
          "type": "uint256"
        }
      ],
      "stateMutability": "view",
      "type": "function"
    },
    {
      "inputs": [
        {
          "internalType": "bytes32",
          "name": "role",
          "type": "bytes32"
        },
        {
          "internalType": "address",
          "name": "account",
          "type": "address"
        }
      ],
      "name": "renounceRole",
      "outputs": [],
      "stateMutability": "nonpayable",
      "type": "function"
    },
    {
      "inputs": [
        {
          "internalType": "bytes32",
          "name": "role",
          "type": "bytes32"
        },
        {
          "internalType": "address",
          "name": "account",
          "type": "address"
        }
      ],
      "name": "revokeRole",
      "outputs": [],
      "stateMutability": "nonpayable",
      "type": "function"
    },
    {
      "inputs": [
        {
          "internalType": "bool",
          "name": "active",
          "type": "bool"
        }
      ],
      "name": "setActive",
      "outputs": [],
      "stateMutability": "nonpayable",
      "type": "function"
    },
    {
      "inputs": [
        {
          "internalType": "uint256",
          "name": "fee_",
          "type": "uint256"
        }
      ],
      "name": "setFee",
      "outputs": [],
      "stateMutability": "nonpayable",
      "type": "function"
    },
    {
      "inputs": [
        {
          "internalType": "uint256",
          "name": "delay",
          "type": "uint256"
        }
      ],
      "name": "setMintDelay",
      "outputs": [],
      "stateMutability": "nonpayable",
      "type": "function"
    },
    {
      "inputs": [
        {
          "internalType": "uint256",
          "name": "counterLimit",
          "type": "uint256"
        },
        {
          "internalType": "uint256",
          "name": "decayRate",
          "type": "uint256"
        }
      ],
      "name": "setRateLimit",
      "outputs": [],
      "stateMutability": "nonpayable",
      "type": "function"
    },
    {
      "inputs": [
        {
          "internalType": "uint256",
          "name": "supplyLimit_",
          "type": "uint256"
        }
      ],
      "name": "setSupplyLimit",
      "outputs": [],
      "stateMutability": "nonpayable",
      "type": "function"
    },
    {
      "inputs": [
        {
          "internalType": "uint32",
          "name": "votesRequired_",
          "type": "uint32"
        }
      ],
      "name": "setVotesRequired",
      "outputs": [],
      "stateMutability": "nonpayable",
      "type": "function"
    },
    {
      "inputs": [],
      "name": "supplyLimit",
      "outputs": [
        {
          "internalType": "uint256",
          "name": "",
          "type": "uint256"
        }
      ],
      "stateMutability": "view",
      "type": "function"
    },
    {
      "inputs": [
        {
          "internalType": "bytes4",
          "name": "interfaceId",
          "type": "bytes4"
        }
      ],
      "name": "supportsInterface",
      "outputs": [
        {
          "internalType": "bool",
          "name": "",
          "type": "bool"
        }
      ],
      "stateMutability": "view",
      "type": "function"
    },
    {
      "inputs": [],
      "name": "token",
      "outputs": [
        {
          "internalType": "contract WrappedToken",
          "name": "",
          "type": "address"
        }
      ],
      "stateMutability": "view",
      "type": "function"
    },
    {
      "inputs": [
        {
          "internalType": "address",
          "name": "newOwner",
          "type": "address"
        }
      ],
      "name": "transferTokenOwnership",
      "outputs": [],
      "stateMutability": "nonpayable",
      "type": "function"
    },
    {
      "inputs": [
        {
          "internalType": "address",
          "name": "newImplementation",
          "type": "address"
        }
      ],
      "name": "upgradeTo",
      "outputs": [],
      "stateMutability": "nonpayable",
      "type": "function"
    },
    {
      "inputs": [
        {
          "internalType": "address",
          "name": "newImplementation",
          "type": "address"
        },
        {
          "internalType": "bytes",
          "name": "data",
          "type": "bytes"
        }
      ],
      "name": "upgradeToAndCall",
      "outputs": [],
      "stateMutability": "payable",
      "type": "function"
    },
    {
      "inputs": [
        {
          "internalType": "bytes32",
          "name": "receiptId",
          "type": "bytes32"
        },
        {
          "internalType": "uint64",
          "name": "substrateBlockNumber",
          "type": "uint64"
        },
        {
          "internalType": "uint256",
          "name": "amount",
          "type": "uint256"
        },
        {
          "internalType": "address",
          "name": "ethRecipient",
          "type": "address"
        }
      ],
      "name": "voteMint",
      "outputs": [],
      "stateMutability": "nonpayable",
      "type": "function"
    },
    {
      "inputs": [
        {
          "internalType": "bytes32",
          "name": "receiptId",
          "type": "bytes32"
        },
        {
          "internalType": "address",
          "name": "voter",
          "type": "address"
        }
      ],
      "name": "voted",
      "outputs": [
        {
          "internalType": "bool",
          "name": "",
          "type": "bool"
        }
      ],
      "stateMutability": "view",
      "type": "function"
    },
    {
      "inputs": [
        {
          "internalType": "bytes32",
          "name": "receiptId",
          "type": "bytes32"
        },
        {
          "internalType": "uint256",
          "name": "",
          "type": "uint256"
        }
      ],
      "name": "votes",
      "outputs": [
        {
          "internalType": "address",
          "name": "votes",
          "type": "address"
        }
      ],
      "stateMutability": "view",
      "type": "function"
    },
    {
      "inputs": [],
      "name": "votesRequired",
      "outputs": [
        {
          "internalType": "uint32",
          "name": "",
          "type": "uint32"
        }
      ],
      "stateMutability": "view",
      "type": "function"
    }
  ],
  "bytecode": {
    "object": "0x60a0604052306080523480156200001557600080fd5b506200002062000026565b620000e8565b600054610100900460ff1615620000935760405162461bcd60e51b815260206004820152602760248201527f496e697469616c697a61626c653a20636f6e747261637420697320696e697469604482015266616c697a696e6760c81b606482015260840160405180910390fd5b60005460ff9081161015620000e6576000805460ff191660ff9081179091556040519081527f7f26b83ff96e1f2b6a682f133852f6798a09c465da95921460cefb38474024989060200160405180910390a15b565b6080516128556200012060003960008181610e8101528181610ec101528181610f6001528181610fa0015261102f01526128556000f3fe6080604052600436106102395760003560e01c806361e08e721161012e578063b53f5227116100ab578063ddca3f431161006f578063ddca3f4314610744578063ead93c8f1461075a578063f1ba83a114610774578063f72c0d8b14610796578063fc0c546a146107b857600080fd5b8063b53f5227146106af578063b88a802f146106cf578063bcf64e05146106e4578063d547741f14610704578063d9a755721461072457600080fd5b806391d14854116100f257806391d14854146105ae5780639f8ee31c146105ce578063a217fddf14610667578063acec338a1461067c578063adf2cead1461069c57600080fd5b806361e08e721461051a578063633433de1461053757806363a599a41461055757806369fe0e2d1461056c57806375b238fc1461058c57600080fd5b80632f2ff15d116101bc5780633659cfe6116101805780633659cfe61461047e5780634460bdd61461049e57806346aa52ce146104c05780634f1ef286146104f257806352d1902d1461050557600080fd5b80632f2ff15d146103da57806331d7a262146103fa57806334636e8e14610428578063361fab251461043e57806336568abe1461045e57600080fd5b80630c2891b7116102035780630c2891b71461031d5780630e0a999e1461035457806319d1997a1461037457806321e6b53d1461038a578063248a9ca3146103aa57600080fd5b80624f94071461023e578062688c401461026057806301ffc9a71461028057806304421823146102b55780630847a4fb146102e5575b600080fd5b34801561024a57600080fd5b5061025e610259366004612205565b6107d8565b005b34801561026c57600080fd5b5061025e61027b36600461224c565b6107f6565b34801561028c57600080fd5b506102a061029b3660046122ac565b610983565b60405190151581526020015b60405180910390f35b3480156102c157600080fd5b506102d760008051602061273983398151915281565b6040519081526020016102ac565b3480156102f157600080fd5b506103056103003660046122d6565b6109ba565b6040516001600160a01b0390911681526020016102ac565b34801561032957600080fd5b5060fb5461033f90610100900463ffffffff1681565b60405163ffffffff90911681526020016102ac565b34801561036057600080fd5b5061025e61036f3660046122f8565b6109f3565b34801561038057600080fd5b506102d760fe5481565b34801561039657600080fd5b5061025e6103a536600461234f565b610c48565b3480156103b657600080fd5b506102d76103c5366004612205565b60009081526065602052604090206001015490565b3480156103e657600080fd5b5061025e6103f536600461236c565b610ce5565b34801561040657600080fd5b506102d761041536600461234f565b6101026020526000908152604090205481565b34801561043457600080fd5b506102d760fd5481565b34801561044a57600080fd5b5061025e610459366004612205565b610ddb565b34801561046a57600080fd5b5061025e61047936600461236c565b610df9565b34801561048a57600080fd5b5061025e61049936600461234f565b610e77565b3480156104aa57600080fd5b506102d76000805160206127b983398151915281565b3480156104cc57600080fd5b5061010354610104546104dd919082565b604080519283526020830191909152016102ac565b61025e6105003660046123b2565b610f56565b34801561051157600080fd5b506102d7611022565b34801561052657600080fd5b5061010554610106546104dd919082565b34801561054357600080fd5b5061025e610552366004612476565b6110d5565b34801561056357600080fd5b5061025e611137565b34801561057857600080fd5b5061025e610587366004612205565b611182565b34801561059857600080fd5b506102d760008051602061280083398151915281565b3480156105ba57600080fd5b506102a06105c936600461236c565b6111a0565b3480156105da57600080fd5b5061062c6105e9366004612205565b61010060205260009081526040902080546001820154600283015460039093015467ffffffffffffffff831693600160401b9093046001600160a01b0316929085565b6040805167ffffffffffffffff90961686526001600160a01b039094166020860152928401919091526060830152608082015260a0016102ac565b34801561067357600080fd5b506102d7600081565b34801561068857600080fd5b5061025e61069736600461249f565b6111cb565b61025e6106aa366004612205565b6111ec565b3480156106bb57600080fd5b5061025e6106ca3660046122d6565b611417565b3480156106db57600080fd5b5061025e61143d565b3480156106f057600080fd5b5061025e6106ff3660046122d6565b6114ba565b34801561071057600080fd5b5061025e61071f36600461236c565b61154d565b34801561073057600080fd5b506102a061073f36600461236c565b61163e565b34801561075057600080fd5b506102d760fc5481565b34801561076657600080fd5b5060fb546102a09060ff1681565b34801561078057600080fd5b506102d760008051602061277983398151915281565b3480156107a257600080fd5b506102d760008051602061275983398151915281565b3480156107c457600080fd5b5060ff54610305906001600160a01b031681565b6000805160206127b98339815191526107f08161165e565b5060fd55565b600054610100900460ff16158080156108165750600054600160ff909116105b806108305750303b158015610830575060005460ff166001145b6108985760405162461bcd60e51b815260206004820152602e60248201527f496e697469616c697a61626c653a20636f6e747261637420697320616c72656160448201526d191e481a5b9a5d1a585b1a5e995960921b60648201526084015b60405180910390fd5b6000805460ff1916600117905580156108bb576000805461ff0019166101001790555b6108c3611668565b6108cb611668565b60ff80546001600160a01b0319166001600160a01b038a1617905561010584905561010683905560fb805464ffffffff00191661010063ffffffff8a160217905560fc85905560fd86905560fe8290556109336000805160206127b9833981519152336116d5565b8015610979576000805461ff0019169055604051600181527f7f26b83ff96e1f2b6a682f133852f6798a09c465da95921460cefb38474024989060200160405180910390a15b5050505050505050565b60006001600160e01b03198216637965db0b60e01b14806109b457506301ffc9a760e01b6001600160e01b03198316145b92915050565b61010160205281600052604060002081815481106109d757600080fd5b6000918252602090912001546001600160a01b03169150829050565b600080516020612739833981519152610a0b8161165e565b60fb5460ff16610a2e576040516343e5c67f60e11b815260040160405180910390fd5b8367ffffffffffffffff16600003610a595760405163a9cb9e0d60e01b815260040160405180910390fd5b6000858152610100602052604090206003015415610a8a57604051632bf773b360e11b815260040160405180910390fd5b6000858152610100602052604090205467ffffffffffffffff1615610acd57610ab58585848661175b565b610ac857610ac360006117d1565b610c41565b610b10565b60008581526101006020526040902080546001600160a01b038416600160401b026001600160e01b031990911667ffffffffffffffff8716171781556001018390555b610b1a853361163e565b15610b3857604051637c9a1cf960e01b815260040160405180910390fd5b60008581526101016020908152604080832080546001810182559084528284200180546001600160a01b03191633179055878352610100909152902060020154158015610ba2575060fb546000868152610101602052604090205461010090910463ffffffff1611155b15610be55760008581526101006020526040808220436002909101555186917f6fb7fd1eda743aa3eb32c69f3b8cf14a5aeadf26db51057a7c5c78ba10eac8a491a25b60008581526101006020908152604091829020548251888152339281019290925267ffffffffffffffff168183015290517f35736f19ec5960edd1e2dbf347b5682b955d14cfaec893ec96d43ec699d742c39181900360600190a15b5050505050565b6000805160206127b9833981519152610c608161165e565b60ff80546001600160a01b031981169091556001600160a01b0316610c8560006117d1565b60405163f2fde38b60e01b81526001600160a01b03848116600483015282169063f2fde38b90602401600060405180830381600087803b158015610cc857600080fd5b505af1158015610cdc573d6000803e3d6000fd5b50505050505050565b60006000805160206127b9833981519152831480610d10575060008051602061273983398151915283145b80610d28575060008051602061275983398151915283145b15610d4857610d456000805160206127b9833981519152336111a0565b90505b600080516020612800833981519152831480610d71575060008051602061277983398151915283145b15610daf57610d8e6000805160206127b9833981519152336111a0565b80610dac5750610dac600080516020612800833981519152336111a0565b90505b80610dcc576040516282b42960e81b815260040160405180910390fd5b610dd683836116d5565b505050565b6000805160206127b9833981519152610df38161165e565b5060fe55565b6001600160a01b0381163314610e695760405162461bcd60e51b815260206004820152602f60248201527f416363657373436f6e74726f6c3a2063616e206f6e6c792072656e6f756e636560448201526e103937b632b9903337b91039b2b63360891b606482015260840161088f565b610e73828261199a565b5050565b6001600160a01b037f0000000000000000000000000000000000000000000000000000000000000000163003610ebf5760405162461bcd60e51b815260040161088f906124bc565b7f00000000000000000000000000000000000000000000000000000000000000006001600160a01b0316610f08600080516020612799833981519152546001600160a01b031690565b6001600160a01b031614610f2e5760405162461bcd60e51b815260040161088f90612508565b610f3781611a01565b60408051600080825260208201909252610f5391839190611a19565b50565b6001600160a01b037f0000000000000000000000000000000000000000000000000000000000000000163003610f9e5760405162461bcd60e51b815260040161088f906124bc565b7f00000000000000000000000000000000000000000000000000000000000000006001600160a01b0316610fe7600080516020612799833981519152546001600160a01b031690565b6001600160a01b03161461100d5760405162461bcd60e51b815260040161088f90612508565b61101682611a01565b610e7382826001611a19565b6000306001600160a01b037f000000000000000000000000000000000000000000000000000000000000000016146110c25760405162461bcd60e51b815260206004820152603860248201527f555550535570677261646561626c653a206d757374206e6f742062652063616c60448201527f6c6564207468726f7567682064656c656761746563616c6c0000000000000000606482015260840161088f565b5060008051602061279983398151915290565b6000805160206127b98339815191526110ed8161165e565b8163ffffffff166000036111145760405163a9cb9e0d60e01b815260040160405180910390fd5b5060fb805463ffffffff9092166101000264ffffffff0019909216919091179055565b60008051602061277983398151915261114f8161165e565b6040517f4e97bcfc80ae353daee1a1990d5b388eef167d3e197ebf5243cc4d43b4125c0990600090a1610f5360006117d1565b60008051602061280083398151915261119a8161165e565b5060fc55565b60009182526065602090815260408084206001600160a01b0393909316845291905290205460ff1690565b6000805160206128008339815191526111e38161165e565b610e73826117d1565b60fb5460ff1661120f576040516343e5c67f60e11b815260040160405180910390fd5b60008181526101006020526040812060028101549091036112435760405163c19f17a960e01b815260040160405180910390fd5b60038101541561126657604051632bf773b360e11b815260040160405180910390fd5b60fd548160020154611278919061256a565b43101561129857604051636fed7d8560e01b815260040160405180910390fd5b60fe54816001015460ff60009054906101000a90046001600160a01b03166001600160a01b03166318160ddd6040518163ffffffff1660e01b8152600401602060405180830381865afa1580156112f3573d6000803e3d6000fd5b505050506040513d601f19601f82011682018060405250810190611317919061257d565b611321919061256a565b1115611340576040516395bfe45760e01b815260040160405180910390fd5b60008281526101016020526040902061135890611b84565b6113658160010154611cd9565b6040518281527f533f7dadbc941d74aaeaeccf2e8b5c0c607281e9050f147d7606feed36c4306c9060200160405180910390a143600382015560ff54815460018301546040516340c10f1960e01b81526001600160a01b03600160401b9093048316600482015260248101919091529116906340c10f19906044015b600060405180830381600087803b1580156113fb57600080fd5b505af115801561140f573d6000803e3d6000fd5b505050505050565b6000805160206127b983398151915261142f8161165e565b506101059190915561010655565b3360008181526101026020526040808220805490839055905190929083908381818185875af1925050503d8060008114611493576040519150601f19603f3d011682016040523d82523d6000602084013e611498565b606091505b5050905080610e7357604051630db2c7f160e31b815260040160405180910390fd5b60fb5460ff166114dd576040516343e5c67f60e11b815260040160405180910390fd5b60408051838152602081018390527f2ee983b623929fc355aa68e38a8d4476c1e01d7ea0cfbb5403dceb3f638e6974910160405180910390a160ff54604051632770a7eb60e21b8152336004820152602481018490526001600160a01b0390911690639dc29fac906044016113e1565b60006000805160206127b9833981519152831480611578575060008051602061277983398151915283145b80611590575060008051602061275983398151915283145b156115b0576115ad6000805160206127b9833981519152336111a0565b90505b6000805160206128008339815191528314806115d9575060008051602061273983398151915283145b15611617576115f66000805160206127b9833981519152336111a0565b806116145750611614600080516020612800833981519152336111a0565b90505b80611634576040516282b42960e81b815260040160405180910390fd5b610dd6838361199a565b6000828152610101602052604081206116579083611d62565b9392505050565b610f538133611dc5565b600054610100900460ff166116d35760405162461bcd60e51b815260206004820152602b60248201527f496e697469616c697a61626c653a20636f6e7472616374206973206e6f74206960448201526a6e697469616c697a696e6760a81b606482015260840161088f565b565b6116df82826111a0565b610e735760008281526065602090815260408083206001600160a01b03851684529091529020805460ff191660011790556117173390565b6001600160a01b0316816001600160a01b0316837f2f8788117e7eff1d82e926ec794901d17c78024a50270940304540a733656f0d60405160405180910390a45050565b600084815261010060205260408120805467ffffffffffffffff8681169116146117895760009150506117c9565b80546001600160a01b03858116600160401b90920416146117ae5760009150506117c9565b828160010154146117c35760009150506117c9565b60019150505b949350505050565b8080156117e7575060ff546001600160a01b0316155b156118055760405163c52a9bd360e01b815260040160405180910390fd5b60fb5460ff1615158115151461184b5760405181151581527ff74fbb47e96130656a063aecd12cec7b7599ed09cfe357c4d850ae7f2cb19b5a9060200160405180910390a15b60fb805460ff191682151517905560ff546001600160a01b031615610f535760ff5460408051635c975abb60e01b815290516000926001600160a01b031691635c975abb9160048083019260209291908290030181865afa1580156118b4573d6000803e3d6000fd5b505050506040513d601f19601f820116820180604052508101906118d89190612596565b90508180156118e45750805b156119395760ff60009054906101000a90046001600160a01b03166001600160a01b0316633f4ba83a6040518163ffffffff1660e01b8152600401600060405180830381600087803b1580156113fb57600080fd5b81158015611945575080155b15610e735760ff60009054906101000a90046001600160a01b03166001600160a01b0316638456cb596040518163ffffffff1660e01b8152600401600060405180830381600087803b1580156113fb57600080fd5b6119a482826111a0565b15610e735760008281526065602090815260408083206001600160a01b0385168085529252808320805460ff1916905551339285917ff6391f5c32d9c69d2a47ea670b442974b53935d1edc7fd64eb21e047a839171b9190a45050565b600080516020612759833981519152610e738161165e565b7f4910fdfa16fed3260ed0e7147f7cc6da11a60208b5b9406d12a635614ffd91435460ff1615611a4c57610dd683611e1e565b826001600160a01b03166352d1902d6040518163ffffffff1660e01b8152600401602060405180830381865afa925050508015611aa6575060408051601f3d908101601f19168201909252611aa39181019061257d565b60015b611b095760405162461bcd60e51b815260206004820152602e60248201527f45524331393637557067726164653a206e657720696d706c656d656e7461746960448201526d6f6e206973206e6f74205555505360901b606482015260840161088f565b6000805160206127998339815191528114611b785760405162461bcd60e51b815260206004820152602960248201527f45524331393637557067726164653a20756e737570706f727465642070726f786044820152681a58589b195555525160ba1b606482015260840161088f565b50610dd6838383611eba565b60fc54341015611ba757604051631c0b171360e31b815260040160405180910390fd5b80546008600260036000611bbb82866125b3565b611bc5848661256a565b611bcf919061256a565b90506000611bdd82346125ca565b90506000611beb83836125b3565b611bf590346125ec565b905060005b87811015611cce57846000829003611c1957611c16888261256a565b90505b60fb54611c3390600190610100900463ffffffff166125ff565b63ffffffff168203611c4c57611c49878261256a565b90505b6000611c5882866125b3565b905082600003611c6f57611c6c848261256a565b90505b8061010260008d8681548110611c8757611c87612623565b60009182526020808320909101546001600160a01b0316835282019290925260400181208054909190611cbb90849061256a565b909155505060019092019150611bfa9050565b505050505050505050565b61010454600090611cea90436125ec565b905060008161010560010154611d0091906125b3565b9050600081610103600001541115611d1f575061010354819003611d23565b5060005b611d2d848261256a565b61010554909150811115611d54576040516307ef6f4d60e31b815260040160405180910390fd5b610103555050436101045550565b8154600090815b81811015611dba57836001600160a01b0316858281548110611d8d57611d8d612623565b6000918252602090912001546001600160a01b031603611db2576001925050506109b4565b600101611d69565b506000949350505050565b611dcf82826111a0565b610e7357611ddc81611ee5565b611de7836020611ef7565b604051602001611df892919061265d565b60408051601f198184030181529082905262461bcd60e51b825261088f916004016126d2565b6001600160a01b0381163b611e8b5760405162461bcd60e51b815260206004820152602d60248201527f455243313936373a206e657720696d706c656d656e746174696f6e206973206e60448201526c1bdd08184818dbdb9d1c9858dd609a1b606482015260840161088f565b60008051602061279983398151915280546001600160a01b0319166001600160a01b0392909216919091179055565b611ec383612093565b600082511180611ed05750805b15610dd657611edf83836120d3565b50505050565b60606109b46001600160a01b03831660145b60606000611f068360026125b3565b611f1190600261256a565b67ffffffffffffffff811115611f2957611f2961239c565b6040519080825280601f01601f191660200182016040528015611f53576020820181803683370190505b509050600360fc1b81600081518110611f6e57611f6e612623565b60200101906001600160f81b031916908160001a905350600f60fb1b81600181518110611f9d57611f9d612623565b60200101906001600160f81b031916908160001a9053506000611fc18460026125b3565b611fcc90600161256a565b90505b6001811115612044576f181899199a1a9b1b9c1cb0b131b232b360811b85600f166010811061200057612000612623565b1a60f81b82828151811061201657612016612623565b60200101906001600160f81b031916908160001a90535060049490941c9361203d81612705565b9050611fcf565b5083156116575760405162461bcd60e51b815260206004820181905260248201527f537472696e67733a20686578206c656e67746820696e73756666696369656e74604482015260640161088f565b61209c81611e1e565b6040516001600160a01b038216907fbc7cd75a20ee27fd9adebab32041f755214dbc6bffa90cc0225b39da2e5c2d3b90600090a250565b60606001600160a01b0383163b61213b5760405162461bcd60e51b815260206004820152602660248201527f416464726573733a2064656c65676174652063616c6c20746f206e6f6e2d636f6044820152651b9d1c9858dd60d21b606482015260840161088f565b600080846001600160a01b031684604051612156919061271c565b600060405180830381855af49150503d8060008114612191576040519150601f19603f3d011682016040523d82523d6000602084013e612196565b606091505b50915091506121be82826040518060600160405280602781526020016127d9602791396121c7565b95945050505050565b606083156121d6575081611657565b61165783838151156121eb5781518083602001fd5b8060405162461bcd60e51b815260040161088f91906126d2565b60006020828403121561221757600080fd5b5035919050565b6001600160a01b0381168114610f5357600080fd5b803563ffffffff8116811461224757600080fd5b919050565b600080600080600080600060e0888a03121561226757600080fd5b87356122728161221e565b965061228060208901612233565b96999698505050506040850135946060810135946080820135945060a0820135935060c0909101359150565b6000602082840312156122be57600080fd5b81356001600160e01b03198116811461165757600080fd5b600080604083850312156122e957600080fd5b50508035926020909101359150565b6000806000806080858703121561230e57600080fd5b84359350602085013567ffffffffffffffff8116811461232d57600080fd5b92506040850135915060608501356123448161221e565b939692955090935050565b60006020828403121561236157600080fd5b81356116578161221e565b6000806040838503121561237f57600080fd5b8235915060208301356123918161221e565b809150509250929050565b634e487b7160e01b600052604160045260246000fd5b600080604083850312156123c557600080fd5b82356123d08161221e565b9150602083013567ffffffffffffffff808211156123ed57600080fd5b818501915085601f83011261240157600080fd5b8135818111156124135761241361239c565b604051601f8201601f19908116603f0116810190838211818310171561243b5761243b61239c565b8160405282815288602084870101111561245457600080fd5b8260208601602083013760006020848301015280955050505050509250929050565b60006020828403121561248857600080fd5b61165782612233565b8015158114610f5357600080fd5b6000602082840312156124b157600080fd5b813561165781612491565b6020808252602c908201527f46756e6374696f6e206d7573742062652063616c6c6564207468726f7567682060408201526b19195b1959d85d1958d85b1b60a21b606082015260800190565b6020808252602c908201527f46756e6374696f6e206d7573742062652063616c6c6564207468726f7567682060408201526b6163746976652070726f787960a01b606082015260800190565b634e487b7160e01b600052601160045260246000fd5b808201808211156109b4576109b4612554565b60006020828403121561258f57600080fd5b5051919050565b6000602082840312156125a857600080fd5b815161165781612491565b80820281158282048414176109b4576109b4612554565b6000826125e757634e487b7160e01b600052601260045260246000fd5b500490565b818103818111156109b4576109b4612554565b63ffffffff82811682821603908082111561261c5761261c612554565b5092915050565b634e487b7160e01b600052603260045260246000fd5b60005b8381101561265457818101518382015260200161263c565b50506000910152565b7f416363657373436f6e74726f6c3a206163636f756e7420000000000000000000815260008351612695816017850160208801612639565b7001034b99036b4b9b9b4b733903937b6329607d1b60179184019182015283516126c6816028840160208801612639565b01602801949350505050565b60208152600082518060208401526126f1816040850160208701612639565b601f01601f19169190910160400192915050565b60008161271457612714612554565b506000190190565b6000825161272e818460208701612639565b919091019291505056fe077a1d526a4ce8a773632ab13b4fbbf1fcc954c3dab26cd27ea0e2a6750da5d7189ab7a9244df0848122154315af71fe140f3db0fe014031783b0946b8c9d2e32125d1e225cadc5c8296e2cc1f96ee607770bf4a4a16131e62f6819937437c89360894a13ba1a3210667c828492db98dca3e2076cc3735a920a3ca505d382bbc7613a25ecc738585a232ad50a301178f12b3ba8887d13e138b523c4269c47689416464726573733a206c6f772d6c6576656c2064656c65676174652063616c6c206661696c6564a49807205ce4d355092ef5a8a18f56e8913cf4a201fbe287825b095693c21775a2646970667358221220ecf81f4a960261b8dd8ecbcb4c0ddc4eb052ebf9e2433b6da2d0dd0e6d6684dc64736f6c63430008120033",
    "linkReferences": {}
  },
  "methodIdentifiers": {
    "ADMIN_ROLE()": "75b238fc",
    "DEFAULT_ADMIN_ROLE()": "a217fddf",
    "RELAY_ROLE()": "04421823",
    "SUPER_ADMIN_ROLE()": "4460bdd6",
    "UPGRADER_ROLE()": "f72c0d8b",
    "WATCHER_ROLE()": "f1ba83a1",
    "bridgeActive()": "ead93c8f",
    "burn(uint256,bytes32)": "bcf64e05",
    "claimReward()": "b88a802f",
    "emergencyStop()": "63a599a4",
    "fee()": "ddca3f43",
    "getRoleAdmin(bytes32)": "248a9ca3",
    "grantRole(bytes32,address)": "2f2ff15d",
    "hasRole(bytes32,address)": "91d14854",
    "incomingReceipts(bytes32)": "9f8ee31c",
    "initialize(address,uint32,uint256,uint256,uint256,uint256,uint256)": "00688c40",
    "mint(bytes32)": "adf2cead",
    "mintCounter()": "46aa52ce",
    "mintDelay()": "34636e8e",
    "pendingRewards(address)": "31d7a262",
    "proxiableUUID()": "52d1902d",
    "rateLimit()": "61e08e72",
    "renounceRole(bytes32,address)": "36568abe",
    "revokeRole(bytes32,address)": "d547741f",
    "setActive(bool)": "acec338a",
    "setFee(uint256)": "69fe0e2d",
    "setMintDelay(uint256)": "004f9407",
    "setRateLimit(uint256,uint256)": "b53f5227",
    "setSupplyLimit(uint256)": "361fab25",
    "setVotesRequired(uint32)": "633433de",
    "supplyLimit()": "19d1997a",
    "supportsInterface(bytes4)": "01ffc9a7",
    "token()": "fc0c546a",
    "transferTokenOwnership(address)": "21e6b53d",
    "upgradeTo(address)": "3659cfe6",
    "upgradeToAndCall(address,bytes)": "4f1ef286",
    "voteMint(bytes32,uint64,uint256,address)": "0e0a999e",
    "voted(bytes32,address)": "d9a75572",
    "votes(bytes32,uint256)": "0847a4fb",
    "votesRequired()": "0c2891b7"
  },
  "id": 55
}